:100000000C9463000C948B000C948B000C948B006C
:100010000C948B000C94E0080C948B000C948B00D7
:100020000C948B000C948B000C948B000C948B0024
:100030000C948B000C948B000C948B000C948B0014
:100040000C943E080C948B000C94AE080C94880819
:100050000C948B000C948B000C948B000C948B00F4
:100060000C948B000C948B000000000023002600F1
:10007000290000000000240027002A0000000000E2
:10008000250028002B0004040404040404040202D4
:100090000202020203030303030301020408102007
:1000A0004080010204081020010204081020000012
:1000B0000008000201000003040700000000000027
:1000C00000004709510E11241FBECFEFD8E0DEBF5C
:1000D000CDBF12E0A0E0B1E0E8EBF2E202C0059093
:1000E0000D92A235B107D9F724E0A2E5B2E001C034
:1000F0001D92A233B207E1F710E0C2E6D0E004C0DF
:100100002197FE010E94430FC136D107C9F70E9413
:100110001E0A0C944F110C94000080915B0291E038
:10012000892780935B02089584E090E090935D02BC
:1001300080935C0280915B0291E0892780935B024F
:10014000089586E090E090935D0280935C02809138
:100150005B0291E0892780935B02089599B19093A7
:100160006B02EDE6F0E09081892B8083E8E6F0E019
:100170008081846080830895833081F028F4813009
:1001800099F08230A9F008958730A9F08830C9F03D
:100190008430B1F4809180008F7D03C08091800015
:1001A0008F7780938000089584B58F7784BD0895FC
:1001B00084B58F7DFBCF8091B0008F778093B000A6
:1001C00008958091B0008F7DF9CF1F93CF93DF9377
:1001D000282F30E0F901E255FF4F8491F901E656EE
:1001E000FF4FD491F901EA57FF4FC491CC23A9F0F6
:1001F000162F81110E94BC00EC2FF0E0EE0FFF1FC4
:10020000E458FF4FA591B4918FB7F894EC91111178
:1002100008C0D095DE23DC938FBFDF91CF911F9173
:100220000895DE2BF8CFCF93DF9390E0FC01E656E4
:10023000FF4F24918A579F4FFC0184918823C9F076
:1002400090E0880F991FFC01EE58FF4FA591B491E3
:10025000FC01E458FF4FC591D49161110DC09FB7C7
:10026000F8948C91209582238C938881282328836D
:100270009FBFDF91CF910895623051F49FB7F894FA
:100280003C91822F809583238C93E8812E2BEFCF96
:100290008FB7F894EC912E2B2C938FBFEACF1F933E
:1002A000CF93DF93182FEB0161E00E941301209799
:1002B00039F460E0812FDF91CF911F910C94E5001C
:1002C000CF3FD10511F461E0F5CFE12FF0E0E25529
:1002D000FF4FE491E33031F140F4E130B1F0E2302E
:1002E000E1F0C038D1057CF7E4CFE73029F1E83000
:1002F00059F1E430B1F780918000806280938000F2
:10030000D0938B00C0938A0004C084B5806884BDFC
:10031000C7BDDF91CF911F91089584B5806284BDE0
:10032000C8BDF7CF80918000806880938000D09313
:100330008900C0938800EDCF8091B00080688093E1
:10034000B000C093B300E5CF8091B000806280938D
:10035000B000C093B400DDCF2FB7F8946091650270
:100360007091660280916702909168022FBF089594
:100370000895AF92BF92CF92DF92EF92FF920F93C8
:100380001F93CF93DF936C017B018B01040F151F2B
:10039000EB015E01AE18BF08C017D10759F0699193
:1003A000D601ED91FC910190F081E02DC6010995F7
:1003B000892B79F7C501DF91CF911F910F91FF90A4
:1003C000EF90DF90CF90BF90AF900895FC01538DD8
:1003D000448D252F30E0842F90E0821B930B54171F
:1003E00010F0CF96089501970895FC01918D828DAC
:1003F000981761F0A28DAE0FBF2FB11D5D968C9145
:10040000928D9F5F9F73928F90E008958FEF9FEF83
:1004100008950F931F930E94AC0160937402709330
:10042000750280937602909377028CE692E00E94A8
:10043000F50197FF1DC00E94AC010091740210915C
:1004400075022091760230917702601B710B820B4E
:10045000930B009170021091710220917202309101
:1004600073026017710782079307F8F28FEF9FEF0F
:100470001F910F910895FC01918D828D981731F095
:10048000828DE80FF11D858D90E008958FEF9FEF2D
:100490000895FC01918D228D892F90E0805C9F4F03
:1004A000821B91098F73992708958CE692E00E9430
:1004B000490221E0892B09F420E0822F089580E091
:1004C00090E0892B29F00E94550281110C940000C4
:1004D0000895FC01A48DA80FB92FB11DA35ABF4FD9
:1004E0002C91848D90E001968F739927848FA68933
:1004F000B7892C93A089B1898C91837080648C9387
:10050000938D848D981306C00288F389E02D808135
:100510008F7D80830895EF92FF920F931F93CF9367
:10052000DF93EC0181E0888F9B8D8C8D98131AC02E
:10053000E889F989808185FF15C09FB7F894EE8915
:10054000FF896083E889F989808183708064808372
:100550009FBF81E090E0DF91CF911F910F91FF90BD
:10056000EF900895F62E0B8D10E00F5F1F4F0F7365
:100570001127E02E8C8D8E110CC00FB607FCFACF20
:10058000E889F989808185FFF5CFCE010E94690253
:10059000F1CFEB8DEC0FFD2FF11DE35AFF4FF082F1
:1005A0009FB7F8940B8FEA89FB8980818062CFCF57
:1005B000CF93DF93EC01888D8823B9F0AA89BB899A
:1005C000E889F9898C9185FD03C0808186FD0DC085
:1005D0000FB607FCF7CF8C9185FFF2CF808185FFA6
:1005E000EDCFCE010E946902E9CFDF91CF9108954E
:1005F000EF92FF921F93CF93DF93EC018A819A8150
:100600009E7F9A839A819D7F9A83182F117080FF15
:1006100013C0EF8DF8A1309779F0ADA1BEA114966B
:10062000ED90FC9015971596DC93CE931497099551
:10063000EDA1FEA1F582E482812FDF91CF911F9180
:10064000FF90EF900895CF93DF9310922104809153
:100650001A0490911B04009741F0FC01D3A1C4A19E
:100660000E94F8028D2F9C2FF6CF81E08093210409
:10067000DF91CF910895CF93DF93EC014B835C839F
:100680006D837E838B819C81AD81BE818F839887B2
:10069000A987BA870E94AC016B877C878D879E876C
:1006A000DF91CF9108950F931F93CF93DF93FC01B8
:1006B000A5A1B6A1109709F448C0EC01178A108EC5
:1006C000118E128E82818B7F8283058CF68DE02DB8
:1006D0003097B9F18A8181FD34C014960D911C9137
:1006E00015971596DC93CE9314978A8182608A833E
:1006F00009959A8180FB90F99A838A818D7F8A83FC
:10070000EDA1FEA1158304838B819C81AD81BE8107
:100710008F839887A987BA870E94AC010F811885BB
:1007200029853A85601B710B820B930B6B877C8745
:100730008D879E878A818170DF91CF911F910F9164
:1007400008958A8181608A83DFCF80E0F5CFCF93DF
:10075000DF93EC010E9453038B819C81AD81BE81AC
:100760008F839887A987BA870E94AC016B877C87A3
:100770008D879E878A818170DF91CF910895FC01DA
:1007800043895489658976894787508B618B728B41
:100790000C94A703CF9380915F02C1E08C278093D4
:1007A0005F0280915F02882371F010925E021092C6
:1007B00010010E94230381E090E090935D028093FA
:1007C0005C02CF91089570E060E08BE00E944F01E1
:1007D00010925D0210925C02C093100183EF93E0CF
:1007E000CF910C94BF0380915E0291E089278093A2
:1007F0005E0280915E028823A9F183EF93E00E945C
:10080000F8028CEC93E00E94F80285EA93E00E94E3
:10081000F8028EE793E00E94F80280E393E00E94E2
:10082000F80287E593E00E94F8020E94230370E03B
:1008300060E08BE00E944F0170E060E089E00E9480
:100840004F0170E060E08AE00E944F0110925B026D
:1008500086E090E090935D0280935C0289E093E0F3
:100860000C94530389E093E00E94F80270E060E08A
:100870008BE00E944F0170E060E089E00E944F0130
:1008800070E060E08AE00E944F0110925D021092D9
:100890005C0283EF93E00C94BF03CF93DF93EC01F2
:1008A0008BE191E0998388838A8180FF03C0CE0128
:1008B0000E94F802EDA1FEA1309789F017821EA2D6
:1008C0001DA2A9A1BAA18BA19CA1109799F4009790
:1008D00049F4118210821382128281E08783DF91B2
:1008E000CF910895DC0192961C921E92919791836C
:1008F0008083F3CF009739F494961C921E929397BD
:10090000B383A283EACF94969C938E9393970BA084
:10091000DCA1C02DBAA3A9A3E0CF4F925F926F9242
:100920007F92AF92BF92CF92DF92EF92FF920F939E
:100930001F93CF93DF93EC01280139018BE191E004
:10094000998388838A818E7F8A838A818D7F8A8337
:100950008A818B7F8A831B861C861D861E861B824E
:100960001C821D821E821F82188619861A861AA270
:1009700019A21CA21BA21EA21DA21F8A188E198ECC
:100980001A8EFC8EEB8EDE8ECD8EB8A2AF8ECE018F
:100990000E943B034F86588A698A7A8A4B8A5C8A0E
:1009A0006D8A7E8A8DA19EA1892BD9F41092210493
:1009B0008AE194E09EA38DA380911A0490911B0478
:1009C000892BF1F4D0931B04C0931A041AA219A224
:1009D0001CA21BA2D0931D04C0931C0481E0809331
:1009E0002104DF91CF911F910F91FF90EF90DF9045
:1009F000CF90BF90AF907F906F905F904F90089591
:100A0000E0911C04F0911D04FAA3E9A3D4A3C3A3AD
:100A1000DFCFFC0101900020E9F73197AF01481BBF
:100A2000590BBC018CE692E00C94B9018F929F9215
:100A3000AF92BF920F931F93CF93DF93CDB7DEB7E3
:100A4000A1970FB6F894DEBF0FBECDBF19A24230FA
:100A500008F44AE08E010F5D1F4F842E912CB12CBB
:100A6000A12CA50194010E940B0FE62FB901CA0128
:100A7000EA30F4F4E05DD801EE938D01232B242BB2
:100A8000252B79F790E080E0109719F0CD010E94B6
:100A90000905A1960FB6F894DEBF0FBECDBFDF915A
:100AA000CF911F910F91BF90AF909F908F9008951D
:100AB000E95CE1CFCF92DF92EF92FF92CF93DF9389
:100AC0006B017C016DE28CE692E00E948B02EC01EE
:100AD00066277727CB016C197D098E099F094AE0AB
:100AE0000E9416058C0F9D1FDF91CF91FF90EF9014
:100AF000DF90CF900895CF93DF9397FF0CC00E94B3
:100B00005A05EC0181E391E00E9409058C0F9D1FBD
:100B1000DF91CF9108954AE00E941605F2CFCF935E
:100B2000DF930E940905EC0181E391E00E94090531
:100B30008C0F9D1FDF91CF91089581E090E09093FD
:100B40005D0280935C0284E391E00E948F0581E066
:100B5000089580E691E00E948F0570E060E08BE0F0
:100B60000E944F0110925D0210925C0280915E0221
:100B7000811108C080915F02811104C08CEC93E068
:100B80000C94BF03089580E691E00E948F0570E009
:100B900060E089E00E944F0110925D0210925C02B9
:100BA00080915E02811108C080915F02811104C0B2
:100BB00085EA93E00C94BF03089583E090E090935E
:100BC0005D0280935C0288E391E00E948F0581E0E2
:100BD000089580E691E00E948F0570E060E08AE071
:100BE0000E944F0110925D0210925C0280915E02A1
:100BF000811108C080915F02811104C08EE793E0EB
:100C00000C94BF03089585E090E090935D0280937B
:100C10005C028DE391E00E948F0510925B0281E0FF
:100C2000089580E691E00E948F0570E060E08AE020
:100C30000E944F0110925D0210925C0280915E0250
:100C4000811108C080915F02811104C087E593E0A3
:100C50000C94BF03089582E090E090935D0280932E
:100C60005C0288E491E00E948F0581E008950C9475
:100C70002B0680E691E00E948F0570E060E089E03D
:100C80000E944F0110925D0210925C0280915E0200
:100C9000811108C080915F02811104C083EF93E04D
:100CA0000C94BF030895CF93DF93E5EBF0E08491BC
:100CB000E1EAF0E0D491EDE8F0E0C491C11114C094
:100CC0008091100191E0892780931001809110019B
:100CD0008823D9F08FE491E00E948F0583EF93E0A1
:100CE000DF91CF910C94BF0381110E94BC00EC2FC7
:100CF000F0E0EE0FFF1FE859FF4FA591B491EC9182
:100D0000ED23F1F2DF91CF91089589E591E00E9402
:100D10008F050E94230383EF93E00E94F8028CEC7E
:100D200093E00E94F80285EA93E00E94F8028EE7C1
:100D300093E00E94F80280E393E00E94F80289E0C9
:100D400093E00E94F80287E593E00E94F80270E0C9
:100D500060E08BE00E944F0170E060E089E00E945B
:100D60004F0170E060E08AE00E944F0110925D0246
:100D700010925C02C7CFAF92BF92CF92DF92EF92F8
:100D8000FF920F931F93CF93DF93DC01CD90DC9004
:100D90001197C114D10439F01496CD91DC918C01D6
:100DA0007601209761F4DF91CF911F910F91FF9011
:100DB000EF90DF90CF90BF90AF90089575015701ED
:100DC000BFEFAB1ABB0AF7018081082E000C990B0C
:100DD0000E94A90E892B91F72197CC0DDD1D8881EA
:100DE000082E000C990B0E94A90E892B29F0CE1514
:100DF000DF0510F02197F3CFAE014F5F5F4F4E1923
:100E00005F09D80115965C934E931497CE14DF04B6
:100E100020F4B701C6010E942B11D801ED91FC917D
:100E2000119714968D919C91E80FF91F1082BBCFFA
:100E3000FC0124813581232B39F421E0FB018081E1
:100E4000882349F020E007C0808191810E943F11F2
:100E500021E0892BB9F7822F08950F931F93CF9329
:100E6000DF93EC0188819981009759F02A813B81B9
:100E70002617370730F081E0DF91CF911F910F9156
:100E800008958B016F5F7F4F0E946E10009759F09D
:100E9000998388831B830A832C813D81232B59F7F7
:100EA000FC011082E8CF80E0E7CFEF92FF920F9332
:100EB0001F93CF93DF93FB0101900020E9F7319757
:100EC000E61BF70BE1F07B018C01DC011496CD9160
:100ED000DC91CE0FDF1FBE010E942D07882381F019
:100EE000F8012081318184819581B701820F931FA0
:100EF0000E944811D8011596DC93CE93149781E097
:100F0000DF91CF911F910F91FF90EF900895CF93B4
:100F1000DF93EC0188819981009711F00E94E50F21
:100F2000198218821D821C821B821A82DF91CF9146
:100F30000895EF92FF920F931F93CF93DF938C014D
:100F40007B01EB0109900020E9F72197C61BD70B25
:100F5000BE010E942D07811109C0C801DF91CF9108
:100F60001F910F91FF90EF900C948707F801D583A4
:100F7000C483B70180819181DF91CF911F910F913F
:100F8000FF90EF900C9448119F92AF92BF92CF9236
:100F9000DF92EF92FF920F931F93CF93DF93EC01B9
:100FA0006B015A0179012417350720F48B2D590163
:100FB000E42EF82E198218821B821A821D821C824E
:100FC00063E371E0CE010E949907D60114960D915A
:100FD0001C91A016B10658F5E016F10608F4870139
:100FE000D601ED91FC911197E00FF11F90801082D6
:100FF000ED90FC90EA0CFB1CE114F10471F0F70198
:1010000001900020E9F731975F01AE18BF08B501E4
:10101000CE010E942D07811117C0CE010E948707C3
:10102000F60180819181080F191FD8019C92CE0191
:10103000DF91CF911F910F91FF90EF90DF90CF90B4
:10104000BF90AF909F900895BD82AC82B701888118
:1010500099810E944811E4CFFC0180819181009721
:1010600011F00C94E50F0895CF93DF93EC010E94EB
:101070004D04CE01DF91CF910C94E50F1F920F929A
:101080000FB60F9211242F933F938F939F93AF939B
:10109000BF938091650290916602A0916702B09122
:1010A00068023091640223E0230F2D3758F5019632
:1010B000A11DB11D20936402809365029093660286
:1010C000A0936702B09368028091600290916102E0
:1010D000A0916202B09163020196A11DB11D80939F
:1010E000600290936102A0936202B0936302BF9189
:1010F000AF919F918F913F912F910F900FBE0F90C5
:101100001F90189526E8230F0296A11DB11DD2CF7E
:101110001F920F920FB60F9211242F933F934F936C
:101120005F936F937F938F939F93AF93BF93EF934F
:10113000FF938CE692E00E946902FF91EF91BF91CC
:10114000AF919F918F917F916F915F914F913F915F
:101150002F910F900FBE0F901F9018951F920F9216
:101160000FB60F9211242F938F939F93EF93FF93BA
:10117000E0917C02F0917D028081E0918202F09109
:10118000830282FD1BC09081809185028F5F8F73E7
:1011900020918602821741F0E0918502F0E0E45947
:1011A000FD4F958F80938502FF91EF919F918F91D5
:1011B0002F910F900FBE0F901F9018958081F4CF44
:1011C0001F920F920FB60F9211242F933F934F93BC
:1011D0005F936F937F938F939F93AF93BF93CF93BF
:1011E000EF93FF9389B1C0916B0290915402C92390
:1011F000982F9095C92380936B02C4FF05C0E0919E
:101200000001F09101010995C5FF05C0E0910E01B3
:10121000F0910F010995C6FF05C0E0910C01F09116
:101220000D010995C7FF05C0E0910A01F0910B017E
:101230000995C0FF05C0E0910201F09103010995F5
:10124000C1FF05C0E0910401F09105010995C2FFBD
:1012500005C0E0910601F09107010995C3FF05C0A3
:10126000E0910801F09109010995FF91EF91CF916B
:10127000BF91AF919F918F917F916F915F914F91AE
:101280003F912F910F900FBE0F901F901895AF9226
:10129000BF92CF92DF92EF92FF920F931F93ECE6F3
:1012A000F2E01382128288EE93E0A0E0B0E0848343
:1012B0009583A683B78383E291E09183808385EC55
:1012C00090E09587848784EC90E09787868780EC10
:1012D00090E0918B808B81EC90E0938B828B82EC01
:1012E00090E0958B848B86EC90E0978B868B118EAB
:1012F000128E138E148EEAE1F4E0178211821082AE
:101300001382128215821482168281E0878389EA11
:10131000A82E85E0B82E9DE9C92E95E0D92EF12C96
:10132000E12C01E010E020E030E040ED57E060E02B
:1013300070E083EF93E00E948D0423ECA22E25E061
:10134000B22E37E3C32E36E0D32E01E010E020E0CA
:1013500030E044EF51E060E070E08CEC93E00E94FC
:101360008D0449EEA42E45E0B42E5DEDC52E55E06A
:10137000D52E01E010E020E030E040ED57E060E0E5
:1013800070E085EA93E00E948D0461E1A62E66E09C
:10139000B62E73E0C72E76E0D72EEDE8EE2EE0E015
:1013A000FE2E06E010E020E030E047EA50E060E08A
:1013B00070E08EE793E00E948D04F9E3AF2EF6E033
:1013C000BF2EABE2CA2EA6E0DA2EF12CE12C01E012
:1013D00010E020E030E044EF51E060E070E087E5AD
:1013E00093E00E948D04B12CA12CD12CC12CB4E926
:1013F000EB2EB0E0FB2E0FEF1FEF980144EF51E012
:1014000060E070E080E393E00E948D0411EAE12E39
:1014100010E0F12E0FEF1FEF980144EF51E060E074
:1014200070E089E093E00E948D041F910F91FF907E
:10143000EF90DF90CF90BF90AF900895CF93DF9360
:10144000CDB7DEB762970FB6F894DEBF0FBECDBF43
:10145000789484B5826084BD84B5816084BD85B58F
:10146000826085BD85B5816085BD80916E0081609B
:1014700080936E0010928100809181008260809341
:101480008100809181008160809381008091800043
:101490008160809380008091B10084608093B1006E
:1014A0008091B00081608093B00080917A00846068
:1014B00080937A0080917A00826080937A00809194
:1014C0007A00816080937A0080917A0080688093AE
:1014D0007A001092C100E0917C02F0917D0282E0DE
:1014E0008083E0917802F09179021082E0917A0293
:1014F000F0917B028FEC808310928402E091800255
:10150000F091810286E08083E0917E02F0917F027B
:10151000808180618083E0917E02F0917F028081F2
:1015200088608083E0917E02F0917F0280818068F4
:101530008083E0917E02F0917F0280818F7D8083A5
:1015400061E08BE00E94130161E089E00E941301D9
:1015500061E08AE00E94130160E08EE00E941301C6
:1015600062E085E00E94130162E086E00E941301C0
:1015700062E087E00E9413018AEC93E090930F01F0
:1015800080930E011091540280E20E94AE0083EF1E
:1015900093E090930D0180930C0180E40E94AE00D3
:1015A00083E596E090930B0180930A01106E1093EF
:1015B000540280E80E94AE0080911001882321F03F
:1015C00083EF93E00E94A70396E0292E312C882414
:1015D0008A9483E0982EA12CB12C80E480937C0027
:1015E00080917A00806480937A0080917A0086FDF1
:1015F000FCCFA0917800B09179002FEF30E00E94ED
:101600003C0FA50194010E94B50E29018901309378
:101610005A022093590280915C0290915D028330BE
:10162000910509F487C090F48130910591F10297FA
:1016300099F170E060E08BE00E944F0170E060E0A3
:1016400089E00E944F0170E060E075C0853091052F
:10165000C1F008F472C0069761F780915B02B9018E
:10166000811102C070E060E08BE00E944F01809128
:101670005B02B201811102C070E060E089E00E946B
:101680004F0180915B02811102C010E000E0B801BF
:1016900052C0B9018BE002C0B90189E00E944F013C
:1016A0000E94AC0100915502109156022091570200
:1016B00030915802601B710B820B930B64367105DD
:1016C0008105910508F48FC084E691E00E94090528
:1016D0006091590270915A02072E000C880B990BE9
:1016E00097FF33C00E945A0581E391E00E940905EB
:1016F0001A8219821C821B821E821D8267E671E09B
:10170000CE0101960E94990780915C0290915D0242
:1017100068E371E08330910551F1D8F464E371E03E
:101720008130910521F168E471E0029701F160E6F2
:1017300071E01DC0B9018AE0B1CF80915B028111D7
:1017400002C010E000E0B801A5CF4AE00E941605F3
:10175000CBCF6DE371E08530910549F06CE671E027
:101760008530910520F066E771E0069701F7CE011C
:1017700001960E9455074D815E8169817A818CE6D0
:1017800092E00E94B90181E391E00E9409058091F5
:101790005C0290915D02049761F080915C029091EF
:1017A0005D02059731F080915C0290915D02069791
:1017B00061F480E891E00E94090580915B0281114B
:1017C00053C080E691E00E948F050E94AC016093B7
:1017D0005502709356028093570290935802CE019F
:1017E00001960E942C0880915F02882309F43FC073
:1017F0008BE891E00E948F05552453948CE692E08B
:101800000E944902181619060CF065C11E861D8635
:10181000188A1F861A8A198A63E371E0CE010D9631
:101820000E9499070E94090297FD2FC08A309105F6
:1018300061F189831A8209891A890F5F1F4FB801E4
:10184000CE010D960E942D07882361F32D853E85DC
:1018500089899A89BE016F5F7F4F820F931F0E9413
:1018600048111A8B098BDECF86E591E0ACCF8091D1
:101870005E02882319F08EE891E0BCCF80911001C0
:101880008111BACF81E991E0B5CFCE010D960E94CA
:10189000BB0689899A89892B29F4CE010D960E946D
:1018A0002C08ACCF6D847E846AE370E0C3010E9493
:1018B0003411009739F08C01061917090F3F1007F2
:1018C00009F083C064E971E0CE010D960E9418070B
:1018D000882389F010925F0210925E0250921001EC
:1018E0000E94230383EF93E00E94A70389E991E01C
:1018F0000E948F05D2CF6BE871E0CE010D960E9459
:101900001807882389F050925F0210925E021092AD
:1019100010010E94230381E090E090935D02809388
:101920005C028DEA91E0E4CF6EE871E0CE010D96A5
:101930000E941807882311F110925F0250925E02F4
:101940000E94230370E060E08BE00E944F0170E092
:1019500060E089E00E944F0170E060E08AE00E9450
:101960004F0110925B0230925D0220925C0289E08E
:1019700093E00E9453038BEC91E0BACF61E971E0F0
:10198000CE010D960E941807882309F486CF109285
:101990005F0210925E02109210010E94230370E019
:1019A00060E08BE00E944F0170E060E089E00E94FF
:1019B0004F0170E060E08AE00E944F0110925D02EA
:1019C00010925C0289EE91E093CF980150E040E0E4
:1019D000BE01635F7F4FCE0107960E94C40729892D
:1019E0003A89A8014F5F5F4FBE01635F7F4FCE0111
:1019F00001960E94C407CE0107960E94BB06CE0145
:101A000001960E94BB0668E072E0CE0107960E9434
:101A10001807882311F189819A81C12CD12C760174
:101A2000009721F00E946D0E6B017C01B701A601A9
:101A300083EF93E00E943B0381E192E00E9409055D
:101A4000C701B6010E947B05CE0101960E942C08B9
:101A5000CE0107960E942C0820CF6EE172E0CE01E5
:101A600007960E9418078823D1F089819A81C12C9A
:101A7000D12C7601009721F00E946D0E6B017C0144
:101A8000B701A6018CEC93E00E943B03B701A601CD
:101A900087E593E00E943B038AE292E0CFCF6AE3BE
:101AA00072E0CE0107960E941807882369F28981A7
:101AB0009A81C12CD12C7601009721F00E946D0EE5
:101AC0006B017C01B701A60185EA93E00E943B030C
:101AD00084E492E0B3CF80911001882309F4D4C04C
:101AE00080911A0490911B0490931F0480931E040C
:101AF00010922204109223041092240410922504C0
:101B0000109226041092270410922804109229049F
:101B100010922A0410922B0410922C0410922D047F
:101B200080912104882309F4AFC0809120048111A1
:101B3000ABC0E0911E04F0911F04309709F4A4C0DB
:101B40008091260490912704A0912804B091290443
:101B50000196A11DB11D8093260490932704A093A4
:101B60002804B093290403A114A1828180FF1EC020
:101B70008091220490912304A0912404B091250423
:101B80000196A11DB11D8093220490932304A0937C
:101B90002404B093250487859089A189B289892B73
:101BA0008A2B8B2B41F4CF010E94F80210931F0463
:101BB00000931E04BACF0E94AC01E0911E04F09184
:101BC0001F044380548065807680C384D484E58478
:101BD000F68427813085418552856C197D098E09EF
:101BE0009F09621773078407950700F3878590891B
:101BF000A189B289181619061A061B065CF4878596
:101C00009089A189B2890197A109B1098787908B31
:101C1000A18BB28B8789908DA18DB28D0196A11D6C
:101C2000B11D878B908FA18FB28F83859485A585F9
:101C3000B6854781508561857285840F951FA61FE3
:101C4000B71F83879487A587B687478250866186AA
:101C50007286038CF48DE02D309709F4A7CF099597
:101C600080912A0490912B04A0912C04B0912D0412
:101C70000196A11DB11D80932A0490932B04A0937B
:101C80002C04B0932D0492CF80E090E0892B09F4CE
:101C9000A4CC0E945502882309F499CC0E9400002C
:101CA00096CC89E093E00E944D0480E393E00E948B
:101CB0004D0487E593E00E944D048EE793E00E9477
:101CC0004D0485EA93E00E944D048CEC93E00E9461
:101CD0004D0483EF93E00C944D041F93FC0199276E
:101CE0008827BC01E89411911032E9F3193010F003
:101CF0001E30C8F31B3251F01D3249F4689406C0FF
:101D00000E94940E610F711D811D911D1191105340
:101D10001A30B0F33EF490958095709561957F4FA1
:101D20008F4F9F4F1F910895592F482F372F262FE0
:101D3000660F771F881F991F660F771F881F991FCF
:101D4000620F731F841F951F660F771F881F991FCF
:101D5000089591110C94B20E803219F0895085507B
:101D6000C8F70895992788270895052E97FB1EF434
:101D700000940E94CC0E57FD07D00E940B0F07FC69
:101D800003D04EF40C94CC0E50954095309521958F
:101D90003F4F4F4F5F4F0895909580957095619597
:101DA0007F4F8F4F9F4F08952F923F924F925F9298
:101DB0006F927F928F929F92AF92BF92CF92DF925B
:101DC000EF92FF920F931F93CF93DF93CDB7DEB7C0
:101DD000CA1BDB0B0FB6F894DEBF0FBECDBF099454
:101DE0002A88398848885F846E847D848C849B84AB
:101DF000AA84B984C884DF80EE80FD800C811B81B9
:101E0000AA81B981CE0FD11D0FB6F894DEBF0FBEE7
:101E1000CDBFED010895A1E21A2EAA1BBB1BFD0147
:101E20000DC0AA1FBB1FEE1FFF1FA217B307E407B9
:101E3000F50720F0A21BB30BE40BF50B661F771F11
:101E4000881F991F1A9469F76095709580959095F1
:101E50009B01AC01BD01CF010895A29FB001B39FCA
:101E6000C001A39F700D811D1124911DB29F700DA3
:101E7000811D1124911D08950E942D0FB7FF089513
:101E8000821B930B0895EE0FFF1F0590F491E02D38
:101E900009940F931F93CF93DF938230910510F431
:101EA00082E090E0E0913004F091310430E020E0F5
:101EB000B0E0A0E0309799F42115310509F44AC04B
:101EC000281B390B24303105D8F58A819B81611597
:101ED000710589F1FB0193838283FE0111C040816A
:101EE00051810281138148175907E0F048175907BB
:101EF00099F4109761F012960C93129713961C9315
:101F00003296CF01DF91CF911F910F9108950093E9
:101F1000300410933104F4CF2115310551F04217EC
:101F2000530738F0A901DB019A01BD01DF01F80177
:101F3000C1CFEF01F9CF9093310480933004CDCF1E
:101F4000FE01E20FF31F81939193225031093983EF
:101F50002883D7CF20912E0430912F04232B41F4D6
:101F6000209113013091140130932F0420932E04FB
:101F700020911101309112012115310541F42DB745
:101F80003EB74091150150911601241B350BE0918D
:101F90002E04F0912F04E217F307A0F42E1B3F0B41
:101FA0002817390778F0AC014E5F5F4F24173507CB
:101FB00048F04E0F5F1F50932F0440932E048193DF
:101FC00091939FCFF0E0E0E09CCFCF93DF93009719
:101FD000E9F0FC01329713821282A0913004B09193
:101FE0003104ED0130E020E01097A1F4208131812F
:101FF000820F931F20912E0430912F042817390748
:1020000009F061C0F0932F04E0932E04DF91CF918B
:102010000895EA01CE17DF07E8F54A815B819E014A
:1020200041155105B1F7E901FB83EA8349915991C3
:10203000C40FD51FEC17FD0761F4808191810296D2
:10204000840F951FE90199838883828193819B8303
:102050008A83F0E0E0E012968D919C9113970097AF
:10206000B9F52D913C911197CD010296820F931FE6
:1020700020912E0430912F042817390739F6309714
:1020800051F51092310410923004B0932F04A093B4
:102090002E04BCCFD383C28340815181840F951F0E
:1020A000C817D90761F44E5F5F4F88819981480F47
:1020B000591F518340838A819B8193838283211599
:1020C000310509F0B0CFF0933104E09330049ECF96
:1020D000FD01DC01C0CF13821282D7CFB0E0A0E0B7
:1020E000E4E7F0E10C94D60E8C01009751F4CB019B
:1020F0000E94490F8C01C801CDB7DEB7E0E10C9416
:10210000F20EFC01E60FF71F9C0122503109E21785
:10211000F30708F49DC0D901CD91DC911197C61742
:10212000D70798F0C530D10530F3CE010497861754
:10213000970708F3C61BD70B2297C193D1936D93D2
:102140007C93CF010E94E50FD6CF5B01AC1ABD0A8C
:102150004C018C0E9D1EA0913004B0913104512C85
:10216000412CF12CE12C109731F580912E049091A7
:102170002F048815990509F05CC04616570608F02B
:1021800058C08091110190911201009741F48DB7D0
:102190009EB74091150150911601841B950BE817CD
:1021A000F90708F055C0F0932F04E0932E04F901CD
:1021B00071836083A0CF8D919C91119712966C9042
:1021C000129713967C901397A815B90559F56C01D1
:1021D00042E0C40ED11CCA14DB0420F1AC014A1940
:1021E0005B09DA011296159780F06282738251833F
:1021F0004083D9016D937C93E114F10471F0D70110
:102200001396FC93EE93129776CF22968C0F9D1F18
:10221000F90191838083F301EFCFF0933104E093D0
:10222000300469CF4816590608F42C017D01D3010A
:102230009ACFCB010E94490F7C01009749F0AE0173
:10224000B8010E942B11C8010E94E50F870153CFEE
:1022500010E000E050CFFB01DC0102C001900D92C4
:1022600041505040D8F70895FC018191861721F024
:102270008823D9F7992708953197CF010895FB0155
:10228000DC018D91019080190110D9F3990B08950B
:10229000FB01DC0101900D920020E1F7089510E0B0
:1022A000C2E6D0E004C0FE010E94430F2196C3366F
:0822B000D107C9F7F894FFCF34
:1022B800B801B801B801B801B801B801B801B8014E
:1022C80001000032048000000000004D04340800C2
:1022D8000000008B02B901E601D8024902F5013B72
:1022E800020D0A0052454400424C554500424C55E7
:1022F800455F424C494E4B0059454C4C4F57005393
:10230800797374656D204F4E0053797374656D2031
:102318004F464600423A004C45443A005245445F15
:10232800424C494E4B00414C4C5F424C494E4B008D
:102338004C45445F53544154453A004231004232BF
:10234800004233004C4F4F50004C4F4F50206D6FA0
:1023580064652061637469766174656400456D65C0
:102368007267656E6379206D6F6465202842312934
:102378002061637469766174656400416C6C2062E5
:102388006C696E6B206D6F6465202842322920616C
:1023980063746976617465640053797374656D203C
:1023A8006F6666206D6F646520284233292061635B
:1023B80074697661746564005245445F54494D45BB
:1023C800004F4B3A5245445F54494D453A005945F0
:1023D8004C4C4F575F54494D45004F4B3A59454C6B
:1023E8004C4F575F54494D453A00424C55455F5450
:1023F800494D45004F4B3A424C55455F54494D4570
:022408003A0098
:00000001FF
