:100000000C9463000C948B000C948B000C948B006C
:100010000C948B000C94C9080C948B000C948B00EE
:100020000C948B000C948B000C948B000C948B0024
:100030000C948B000C948B000C948B000C948B0014
:100040000C9427080C948B000C9497080C9471085E
:100050000C948B000C948B000C948B000C948B00F4
:100060000C948B000C948B000000000023002600F1
:10007000290000000000240027002A0000000000E2
:10008000250028002B0004040404040404040202D4
:100090000202020203030303030301020408102007
:1000A0004080010204081020010204081020000012
:1000B0000008000201000003040700000000000027
:1000C00000003009DC0D11241FBECFEFD8E0DEBFE9
:1000D000CDBF11E0A0E0B1E0EEECF1E202C005908E
:1000E0000D92AE3DB107D9F723E0AEEDB1E001C00E
:1000F0001D92AE3BB207E1F710E0C2E6D0E004C0CB
:100100002197FE010E94CE0EC136D107C9F70E9489
:10011000070A0C94DA100C9400008091E70191E03A
:1001200089278093E701089584E090E09093E901A6
:100130008093E8018091E70191E089278093E701AE
:10014000089586E090E09093E9018093E801809122
:10015000E70191E089278093E701089599B1909391
:10016000F701EDE6F0E09081892B8083E8E6F0E08E
:100170008081846080830895833081F028F4813009
:1001800099F08230A9F008958730A9F08830C9F03D
:100190008430B1F4809180008F7D03C08091800015
:1001A0008F7780938000089584B58F7784BD0895FC
:1001B00084B58F7DFBCF8091B0008F778093B000A6
:1001C00008958091B0008F7DF9CF1F93CF93DF9377
:1001D000282F30E0F901E255FF4F8491F901E656EE
:1001E000FF4FD491F901EA57FF4FC491CC23A9F0F6
:1001F000162F81110E94BC00EC2FF0E0EE0FFF1FC4
:10020000E458FF4FA591B4918FB7F894EC91111178
:1002100008C0D095DE23DC938FBFDF91CF911F9173
:100220000895DE2BF8CFCF93DF9390E0FC01E656E4
:10023000FF4F24918A579F4FFC0184918823C9F076
:1002400090E0880F991FFC01EE58FF4FA591B491E3
:10025000FC01E458FF4FC591D49161110DC09FB7C7
:10026000F8948C91209582238C938881282328836D
:100270009FBFDF91CF910895623051F49FB7F894FA
:100280003C91822F809583238C93E8812E2BEFCF96
:100290008FB7F894EC912E2B2C938FBFEACF1F933E
:1002A000CF93DF93182FEB0161E00E941301209799
:1002B00039F460E0812FDF91CF911F910C94E5001C
:1002C000CF3FD10511F461E0F5CFE12FF0E0E25529
:1002D000FF4FE491E33031F140F4E130B1F0E2302E
:1002E000E1F0C038D1057CF7E4CFE73029F1E83000
:1002F00059F1E430B1F780918000806280938000F2
:10030000D0938B00C0938A0004C084B5806884BDFC
:10031000C7BDDF91CF911F91089584B5806284BDE0
:10032000C8BDF7CF80918000806880938000D09313
:100330008900C0938800EDCF8091B00080688093E1
:10034000B000C093B300E5CF8091B000806280938D
:10035000B000C093B400DDCF2FB7F8946091F101E5
:100360007091F2018091F3019091F4012FBF0895F3
:100370000895AF92BF92CF92DF92EF92FF920F93C8
:100380001F93CF93DF936C017B018B01040F151F2B
:10039000EB015E01AE18BF08C017D10759F0699193
:1003A000D601ED91FC910190F081E02DC6010995F7
:1003B000892B79F7C501DF91CF911F910F91FF90A4
:1003C000EF90DF90CF90BF90AF900895FC01538DD8
:1003D000448D252F30E0842F90E0821B930B54171F
:1003E00010F0CF96089501970895FC01918D828DAC
:1003F000981761F0A28DAE0FBF2FB11D5D968C9145
:10040000928D9F5F9F73928F90E008958FEF9FEF83
:1004100008950F931F930E94AC01609300027093A4
:100420000102809302029093030288EF91E00E9400
:10043000F50197FF1DC00E94AC01009100021091D0
:1004400001022091020230910302601B710B820BAA
:10045000930B0091FC011091FD012091FE01309160
:10046000FF016017710782079307F8F28FEF9FEF84
:100470001F910F910895FC01918D828D981731F095
:10048000828DE80FF11D858D90E008958FEF9FEF2D
:100490000895FC01918D228D892F90E0805C9F4F03
:1004A000821B91098F739927089588EF91E00E942C
:1004B000490221E0892B09F420E0822F089580E091
:1004C00090E0892B29F00E94550281110C940000C4
:1004D0000895FC01A48DA80FB92FB11DA35ABF4FD9
:1004E0002C91848D90E001968F739927848FA68933
:1004F000B7892C93A089B1898C91837080648C9387
:10050000938D848D981306C00288F389E02D808135
:100510008F7D80830895EF92FF920F931F93CF9367
:10052000DF93EC0181E0888F9B8D8C8D98131AC02E
:10053000E889F989808185FF15C09FB7F894EE8915
:10054000FF896083E889F989808183708064808372
:100550009FBF81E090E0DF91CF911F910F91FF90BD
:10056000EF900895F62E0B8D10E00F5F1F4F0F7365
:100570001127E02E8C8D8E110CC00FB607FCFACF20
:10058000E889F989808185FFF5CFCE010E94690253
:10059000F1CFEB8DEC0FFD2FF11DE35AFF4FF082F1
:1005A0009FB7F8940B8FEA89FB8980818062CFCF57
:1005B000CF93DF93EC01888D8823B9F0AA89BB899A
:1005C000E889F9898C9185FD03C0808186FD0DC085
:1005D0000FB607FCF7CF8C9185FFF2CF808185FFA6
:1005E000EDCFCE010E946902E9CFDF91CF9108954E
:1005F000EF92FF921F93CF93DF93EC018A819A8150
:100600009E7F9A839A819D7F9A83182F117080FF15
:1006100013C0EF8DF8A1309779F0ADA1BEA114966B
:10062000ED90FC9015971596DC93CE931497099551
:10063000EDA1FEA1F582E482812FDF91CF911F9180
:10064000FF90EF900895CF93DF931092AD038091C8
:10065000A6039091A703009741F0FC01D3A1C4A188
:100660000E94F8028D2F9C2FF6CF81E08093AD037E
:10067000DF91CF910895CF93DF93EC014B835C839F
:100680006D837E838B819C81AD81BE818F839887B2
:10069000A987BA870E94AC016B877C878D879E876C
:1006A000DF91CF9108950F931F93CF93DF93FC01B8
:1006B000A5A1B6A1109709F448C0EC01178A108EC5
:1006C000118E128E82818B7F8283058CF68DE02DB8
:1006D0003097B9F18A8181FD34C014960D911C9137
:1006E00015971596DC93CE9314978A8182608A833E
:1006F00009959A8180FB90F99A838A818D7F8A83FC
:10070000EDA1FEA1158304838B819C81AD81BE8107
:100710008F839887A987BA870E94AC010F811885BB
:1007200029853A85601B710B820B930B6B877C8745
:100730008D879E878A818170DF91CF911F910F9164
:1007400008958A8181608A83DFCF80E0F5CFCF93DF
:10075000DF93EC018B899C89AD89BE898F87988B4B
:10076000A98BBA8BCE010E9453038B819C81AD81F2
:10077000BE818F839887A987BA870E94AC016B8757
:100780007C878D879E878A818170DF91CF910895C4
:10079000CF938091E201C1E08C278093E2018091A8
:1007A000E201882371F01092E101109210010E9481
:1007B000230381E090E09093E9018093E801CF91D9
:1007C000089570E060E08BE00E944F011092E90113
:1007D0001092E801C09310018FE793E0CF910C9441
:1007E000A7038091E10191E089278093E101809145
:1007F000E1018823A9F18FE793E00E94F80288E5E0
:1008000093E00E94F80281E393E00E94F8028AE0FC
:1008100093E00E94F8028CEB92E00E94F80283EED3
:1008200092E00E94F8020E94230370E060E08BE0F7
:100830000E944F0170E060E089E00E944F0170E08B
:1008400060E08AE00E944F011092E70186E090E0AC
:100850009093E9018093E80185E992E00C945303B9
:1008600085E992E00E94F80270E060E08BE00E946F
:100870004F0170E060E089E00E944F0170E060E0AD
:100880008AE00E944F011092E9011092E8018FE77F
:1008900093E00C94A703CF93DF93EC018BE191E0FD
:1008A000998388838A8180FF03C0CE010E94F80269
:1008B000EDA1FEA1309789F017821EA21DA2A9A169
:1008C000BAA18BA19CA1109799F4009749F41182C9
:1008D00010821382128281E08783DF91CF91089585
:1008E000DC0192961C921E92919791838083F3CFA4
:1008F000009739F494961C921E929397B383A28327
:10090000EACF94969C938E9393970BA0DCA1C02D75
:10091000BAA3A9A3E0CF4F925F926F927F92AF925A
:10092000BF92CF92DF92EF92FF920F931F93CF93DC
:10093000DF93EC01280139018BE191E099838883F1
:100940008A818E7F8A838A818D7F8A838A818B7F49
:100950008A831B861C861D861E861B821C821D8226
:100960001E821F82188619861A861AA219A21CA234
:100970001BA21EA21DA21F8A188E198E1A8EFC8E13
:10098000EB8EDE8ECD8EB8A2AF8ECE010E943B03E1
:100990004F86588A698A7A8A4B8A5C8A6D8A7E8AEF
:1009A0008DA19EA1892BD9F41092AD0386EA93E024
:1009B0009EA38DA38091A6039091A703892BF1F4A8
:1009C000D093A703C093A6031AA219A21CA21BA22C
:1009D000D093A903C093A80381E08093AD03DF9176
:1009E000CF911F910F91FF90EF90DF90CF90BF902C
:1009F000AF907F906F905F904F900895E091A80323
:100A0000F091A903FAA3E9A3D4A3C3A3DFCFFC0108
:100A100001900020E9F73197AF01481B590BBC0149
:100A200088EF91E00C94B9018F929F92AF92BF92A0
:100A30000F931F93CF93DF93CDB7DEB7A1970FB678
:100A4000F894DEBF0FBECDBF19A2423008F44AE0D1
:100A50008E010F5D1F4F842E912CB12CA12CA5016E
:100A600094010E94960EE62FB901CA01EA30F4F40F
:100A7000E05DD801EE938D01232B242B252B79F7F4
:100A800090E080E0109719F0CD010E940705A19633
:100A90000FB6F894DEBF0FBECDBFDF91CF911F918F
:100AA0000F91BF90AF909F908F900895E95CE1CF38
:100AB000CF92DF92EF92FF92CF93DF936B017C0195
:100AC0006DE288EF91E00E948B02EC0166277727A8
:100AD000CB016C197D098E099F094AE00E9414051B
:100AE0008C0F9D1FDF91CF91FF90EF90DF90CF9003
:100AF0000895CF93DF9397FF0CC00E945805EC0137
:100B000081E391E00E9407058C0F9D1FDF91CF913B
:100B100008954AE00E941405F2CFCF93DF930E941C
:100B20000705EC0181E391E00E9407058C0F9D1FF2
:100B3000DF91CF91089581E090E09093E901809357
:100B4000E80184E391E00E948D0581E0089580E64C
:100B500091E00E948D0570E060E08BE00E944F0103
:100B60001092E9011092E8018091E101811108C021
:100B70008091E201811104C088E593E00C94A70301
:100B8000089580E691E00E948D0570E060E089E0C4
:100B90000E944F011092E9011092E8018091E10159
:100BA000811108C08091E201811104C081E393E0CA
:100BB0000C94A703089583E090E09093E90180935B
:100BC000E80188E391E00E948D0581E0089580E6C8
:100BD00091E00E948D0570E060E08AE00E944F0184
:100BE0001092E9011092E8018091E101811108C0A1
:100BF0008091E201811104C08AE093E00C94A70384
:100C0000089585E090E09093E9018093E8018DE3F9
:100C100091E00E948D051092E70181E0089580E641
:100C200091E00E948D0570E060E08AE00E944F0133
:100C30001092E9011092E8018091E101811108C050
:100C40008091E201811104C083EE92E00C94A7032D
:100C5000089582E090E09093E9018093E80188E4B0
:100C600091E00E948D0581E008950C94290680E6AC
:100C700091E00E948D0570E060E089E00E944F01E4
:100C80001092E9011092E8018091E101811108C000
:100C90008091E201811104C08FE793E00C94A703D7
:100CA0000895CF93DF93E5EBF0E08491E1EAF0E083
:100CB000D491EDE8F0E0C491C11114C0809110010D
:100CC00091E0892780931001809110018823D9F049
:100CD0008FE491E00E948D058FE793E0DF91CF9143
:100CE0000C94A70381110E94BC00EC2FF0E0EE0FE2
:100CF000FF1FE859FF4FA591B491EC91ED23F1F25C
:100D0000DF91CF91089589E591E00E948D050E94C1
:100D100023038FE793E00E94F80288E593E00E94A6
:100D2000F80281E393E00E94F8028AE093E00E94D7
:100D3000F8028CEB92E00E94F80285E992E00E94B2
:100D4000F80283EE92E00E94F80270E060E08BE02F
:100D50000E944F0170E060E089E00E944F0170E066
:100D600060E08AE00E944F011092E9011092E801D0
:100D7000C7CFAF92BF92CF92DF92EF92FF920F93C5
:100D80001F93CF93DF93DC01CD90DC901197C114BA
:100D9000D10439F01496CD91DC918C017601209725
:100DA00061F4DF91CF911F910F91FF90EF90DF9051
:100DB000CF90BF90AF90089575015701BFEFAB1A68
:100DC000BB0AF7018081082E000C990B0E94340E9B
:100DD000892B91F72197CC0DDD1D8881082E000C01
:100DE000990B0E94340E892B29F0CE15DF0510F0E7
:100DF0002197F3CFAE014F5F5F4F4E195F09D801C6
:100E000015965C934E931497CE14DF0420F4B7012B
:100E1000C6010E94B610D801ED91FC91119714966D
:100E20008D919C91E80FF91F1082BBCF0F931F93F8
:100E3000CF93DF93EC0188819981009759F02A8143
:100E40003B812617370730F081E0DF91CF911F916A
:100E50000F9108958B016F5F7F4F0E94F90F0097EC
:100E600059F0998388831B830A832C813D81232B2E
:100E700059F7FC011082E8CF80E0E7CFEF92FF92B4
:100E80000F931F93CF93DF93FB0101900020E9F7AD
:100E90003197E61BF70BE1F07B018C01DC01149626
:100EA000CD91DC91CE0FDF1FBE010E941607882373
:100EB00081F0F8012081318184819581B701820F11
:100EC000931F0E94D310D8011596DC93CE931497EC
:100ED00081E0DF91CF911F910F91FF90EF900895E6
:100EE000CF93DF93EC0188819981009711F00E94E4
:100EF000700F198218821D821C821B821A82DF9158
:100F0000CF910895EF92FF920F931F93CF93DF93AA
:100F10008C017B01EB0109900020E9F72197C61BAA
:100F2000D70BBE010E941607811109C0C801DF91CD
:100F3000CF911F910F91FF90EF900C947007F801E3
:100F4000D583C483B70180819181DF91CF911F91B7
:100F50000F91FF90EF900C94D3109F92AF92BF929D
:100F6000CF92DF92EF92FF920F931F93CF93DF9375
:100F7000EC016B015A0179012417350720F48B2D00
:100F80005901E42EF82E198218821B821A821D82C2
:100F90001C8263E371E0CE010E948207D6011496A1
:100FA0000D911C91A016B10658F5E016F10608F453
:100FB0008701D601ED91FC911197E00FF11F908010
:100FC0001082ED90FC90EA0CFB1CE114F10471F02E
:100FD000F70101900020E9F731975F01AE18BF08D3
:100FE000B501CE010E941607811117C0CE010E94E3
:100FF0007007F60180819181080F191FD8019C921A
:10100000CE01DF91CF911F910F91FF90EF90DF9074
:10101000CF90BF90AF909F900895BD82AC82B701F2
:10102000888199810E94D310E4CFFC018081918155
:10103000009711F00C94700F0895CF93DF93EC019B
:101040000E944B04CE01DF91CF910C94700F1F9240
:101050000F920FB60F9211242F933F938F939F936C
:10106000AF93BF938091F1019091F201A091F301B0
:10107000B091F4013091F00123E0230F2D3758F5A2
:101080000196A11DB11D2093F0018093F101909371
:10109000F201A093F301B093F4018091EC019091DF
:1010A000ED01A091EE01B091EF010196A11DB11DDE
:1010B0008093EC019093ED01A093EE01B093EF01CA
:1010C000BF91AF919F918F913F912F910F900FBE44
:1010D0000F901F90189526E8230F0296A11DB11DB1
:1010E000D2CF1F920F920FB60F9211242F933F93DE
:1010F0004F935F936F937F938F939F93AF93BF9320
:10110000EF93FF9388EF91E00E946902FF91EF91C6
:10111000BF91AF919F918F917F916F915F914F910F
:101120003F912F910F900FBE0F901F9018951F9217
:101130000F920FB60F9211242F938F939F93EF93DB
:10114000FF93E0910802F09109028081E0910E0284
:10115000F0910F0282FD1BC09081809111028F5F80
:101160008F7320911202821741F0E0911102F0E09A
:10117000E850FE4F958F80931102FF91EF919F9160
:101180008F912F910F900FBE0F901F901895808117
:10119000F4CF1F920F920FB60F9211242F933F930B
:1011A0004F935F936F937F938F939F93AF93BF936F
:1011B000CF93EF93FF9389B1C091F7019091E00134
:1011C000C923982F9095C9238093F701C4FF05C0C8
:1011D000E0910001F09101010995C5FF05C0E09182
:1011E0000E01F0910F010995C6FF05C0E0910C01B9
:1011F000F0910D010995C7FF05C0E0910A01F0913A
:101200000B010995C0FF05C0E0910201F0910301B7
:101210000995C1FF05C0E0910401F0910501099510
:10122000C2FF05C0E0910601F09107010995C3FFD7
:1012300005C0E0910801F09109010995FF91EF9136
:10124000CF91BF91AF919F918F917F916F915F915E
:101250004F913F912F910F900FBE0F901F901895B7
:10126000AF92BF92CF92DF92EF92FF920F931F93B4
:10127000E8EFF1E01382128288EE93E0A0E0B0E0A4
:1012800084839583A683B78383E291E091838083EF
:1012900085EC90E09587848784EC90E0978786873B
:1012A00080EC90E0918B808B81EC90E0938B828B33
:1012B00082EC90E0958B848B86EC90E0978B868B0C
:1012C000118E128E138E148EE6EAF3E017821182CD
:1012D00010821382128215821482168281E0878323
:1012E00087EAA82E85E0B82E9BE9C92E95E0D92E75
:1012F000F12CE12C01E010E020E030E040ED57E07F
:1013000060E070E08FE793E00E948B0421ECA22E56
:1013100025E0B22E35E3C32E36E0D32E01E010E0F7
:1013200020E030E044EF51E060E070E088E593E0D9
:101330000E948B0447EEA42E45E0B42E5BEDC52E33
:1013400055E0D52E01E010E020E030E040ED57E020
:1013500060E070E081E393E00E948B046FE0A62ED2
:1013600066E0B62E71E0C72E76E0D72EEDE8EE2EC1
:10137000E0E0FE2E06E010E020E030E047EA50E03A
:1013800060E070E08AE093E00E948B04F7E3AF2E08
:10139000F6E0BF2EA9E2CA2EA6E0DA2EF12CE12C4F
:1013A00001E010E020E030E044EF51E060E070E068
:1013B00083EE92E00E948B04B12CA12CD12CC12C85
:1013C000B4E9EB2EB0E0FB2E0FEF1FEF980144EFD6
:1013D00051E060E070E08CEB92E00E948B0411EA37
:1013E000E12E10E0F12E0FEF1FEF980144EF51E0D6
:1013F00060E070E085E992E00E948B041F910F91FC
:10140000FF90EF90DF90CF90BF90AF900895CF9373
:10141000DF93CDB7DEB764970FB6F894DEBF0FBE8B
:10142000CDBF789484B5826084BD84B5816084BD6D
:1014300085B5826085BD85B5816085BD80916E0072
:10144000816080936E0010928100809181008260A3
:1014500080938100809181008160809381008091E0
:1014600080008160809380008091B10084608093CF
:10147000B1008091B00081608093B00080917A00CB
:10148000846080937A0080917A00826080937A00F1
:1014900080917A00816080937A0080917A008068E0
:1014A00080937A001092C100E0910802F091090245
:1014B00082E08083E0910402F09105021082E091C5
:1014C0000602F09107028FEC808310921002E091E7
:1014D0000C02F0910D0286E08083E0910A02F09107
:1014E0000B02808180618083E0910A02F0910B02FF
:1014F000808188608083E0910A02F0910B028081F4
:1015000080688083E0910A02F0910B0280818F7DD8
:10151000808361E08BE00E94130161E089E00E941A
:10152000130161E08AE00E94130160E08EE00E94F6
:10153000130162E085E00E94130162E086E00E94F0
:10154000130162E087E00E94130188EC93E090931E
:101550000F0180930E011091E00180E20E94AE0025
:1015600081EF93E090930D0180930C0180E40E9441
:10157000AE0081E596E090930B0180930A01106E16
:101580001093E00180E80E94AE0080911001882352
:1015900001F18FE793E00E945303809182039091C1
:1015A0008303A0918403B091850380938603909375
:1015B0008703A0938803B09389030E94AC016093D2
:1015C0008A0370938B0380938C0390938D03809197
:1015D000810388248A9493E0992EA12CB12C00E0F9
:1015E00010E080E4382E30927C0080917A00806494
:1015F00080937A0080917A0086FDFCCFA0917800DC
:10160000B09179002FEF30E00E94C70EA501940140
:101610000E94400E290179013093EB012093EA01E9
:101620008091E8019091E9018330910509F487C028
:1016300090F48130910591F1029799F170E060E0AA
:101640008BE00E944F0170E060E089E00E944F0152
:1016500070E060E075C085309105C1F008F472C09B
:10166000069761F78091E701B901811102C070E02E
:1016700060E08BE00E944F018091E701B20181118F
:1016800002C070E060E089E00E944F018091E701B4
:10169000811102C0F12CE12CB70152C0B9018BE0DD
:1016A00002C0B90189E00E944F010E94AC01409044
:1016B000E3015090E4016090E5017090E601641947
:1016C000750986099709643671058105910508F445
:1016D0008FC084E691E00E9407056091EA01709155
:1016E000EB01072E000C880B990B97FF33C00E946B
:1016F000580581E391E00E9407051A8219821C8235
:101700001B821E821D8267E671E0CE0101960E9457
:1017100082078091E8019091E90168E371E08330EC
:10172000910551F1D8F464E371E08130910521F124
:1017300068E471E0029701F160E671E01DC0B90153
:101740008AE0B1CF8091E701811102C0F12CE12C38
:10175000B701A5CF4AE00E941405CBCF6DE371E03D
:101760008530910549F06CE671E08530910520F0F7
:1017700066E771E0069701F7CE0101960E943E07E9
:101780004D815E8169817A8188EF91E00E94B90183
:1017900081E391E00E9407058091E8019091E901C1
:1017A000049761F08091E8019091E901059731F08B
:1017B0008091E8019091E901069761F480E891E059
:1017C0000E9407058091E701811150C080E691E0F9
:1017D0000E948D050E94AC016093E3017093E401C7
:1017E0008093E5019093E601CE0101960E941508D1
:1017F0008091E2018823E9F18BE891E00E948D0558
:1018000088EF91E00E944902892B09F4ABC01E8643
:101810001D86188A1F861A8A198A63E371E0CE0131
:101820000D960E9482070E94090297FD30C08A30FF
:10183000910569F189831A82E988FA888FEFE81A9D
:10184000F80AB701CE010D960E941607882359F3B6
:101850002D853E8589899A89BE016F5F7F4F820FF2
:10186000931F0E94D310FA8AE98ADDCF86E591E0C2
:10187000AFCF8091E101882319F08EE891E0BECFCF
:10188000809110018111BCCF81E991E0B7CFCE01E9
:101890000D960E94B90689899A89892B09F45EC040
:1018A0006D847E846AE370E0C3010E94BF100097DC
:1018B00009F454C07C01E618F7081E141F040CF04C
:1018C0004DC0970150E040E0BE01635F7F4FCE0105
:1018D00007960E94AD0729893A89A7014F5F5F4F9C
:1018E000BE01635F7F4FCE0101960E94AD07CE011E
:1018F00007960E94B906CE0101960E94B9068B8513
:101900009C85892B19F1EF80F88464E971E0C701A7
:101910000E94CA10892B09F09CC089819A81412CB0
:10192000512C3201009721F00E94F80D2B013C014F
:10193000B301A2018FE793E00E943B038DE991E0A0
:101940000E940705C301B2010E947905CE010196EC
:101950000E941508CE0107960E941508CE010D962B
:101960000E94150880911001882309F419C1809103
:10197000A6039091A7039093AB038093AA031092C0
:10198000AE031092AF031092B0031092B103109205
:10199000B2031092B3031092B4031092B5031092E5
:1019A000B6031092B7031092B8031092B903809156
:1019B000AD03882309F4F4C08091AC038111F0C019
:1019C000E091AA03F091AB03309709F4E9C040918C
:1019D000B2035091B3036091B4037091B5034F5FAC
:1019E0005F4F6F4F7F4F4093B2035093B3036093A9
:1019F000B4037093B50383A194A19C8B8B8B8281DC
:101A000080FF20C04091AE035091AF036091B003BE
:101A10007091B1034F5F5F4F6F4F7F4F4093AE03A5
:101A20005093AF036093B0037093B103878590899F
:101A3000A189B289892B8A2B8B2B09F047C0CF0152
:101A40000E94F8028B899C899093AB038093AA0330
:101A5000B3CF6AEA71E0C7010E94CA10892BD1F4A2
:101A600089819A81412C512C3201009721F00E94EA
:101A7000F80D2B013C01B301A20188E593E00E941F
:101A80003B03B301A20183EE92E00E943B0386EB8D
:101A900091E056CF66EC71E0C7010E94CA10892B15
:101AA00009F054CF89819A81412C512C3201009741
:101AB00021F00E94F80D2B013C01B301A20181E34A
:101AC00093E00E943B0380ED91E03ACF0E94AC018D
:101AD000E091AA03F091AB03438054806580768047
:101AE000C384D484E584F68427813085418552857A
:101AF0006C197D098E099F09621773078407950782
:101B000008F4A0CF87859089A189B2891816190693
:101B10001A061B065CF487859089A189B289019712
:101B2000A109B1098787908BA18BB28B8789908D92
:101B3000A18DB28D0196A11DB11D878B908FA18FB4
:101B4000B28F83859485A585B6854781508561854B
:101B50007285840F951FA61FB71F83879487A5875B
:101B6000B6874782508661867286038CF48DE02D9D
:101B7000309709F467CF09958091B6039091B70328
:101B8000A091B803B091B9030196A11DB11D809336
:101B9000B6039093B703A093B803B093B90352CFA1
:101BA0000115110509F41FCD0E945502882309F47F
:101BB00018CD0E94000015CD85E992E00E944B04EB
:101BC0008CEB92E00E944B0483EE92E00E944B0467
:101BD0008AE093E00E944B0481E393E00E944B046F
:101BE00088E593E00E944B048FE793E00C944B044C
:101BF0001F93FC0199278827BC01E89411911032AA
:101C0000E9F3193010F01E30C8F31B3251F01D32C9
:101C100049F4689406C00E941F0E610F711D811D5A
:101C2000911D119110531A30B0F33EF490958095A8
:101C3000709561957F4F8F4F9F4F1F910895592F3A
:101C4000482F372F262F660F771F881F991F660F83
:101C5000771F881F991F620F731F841F951F660FC0
:101C6000771F881F991F089591110C943D0E8032A3
:101C700019F089508550C8F7089599278827089545
:101C8000052E97FB1EF400940E94570E57FD07D0B7
:101C90000E94960E07FC03D04EF40C94570E5095FC
:101CA0004095309521953F4F4F4F5F4F0895909548
:101CB0008095709561957F4F8F4F9F4F08952F921C
:101CC0003F924F925F926F927F928F929F92AF92CC
:101CD000BF92CF92DF92EF92FF920F931F93CF9319
:101CE000DF93CDB7DEB7CA1BDB0B0FB6F894DEBFB0
:101CF0000FBECDBF09942A88398848885F846E84D6
:101D00007D848C849B84AA84B984C884DF80EE801F
:101D1000FD800C811B81AA81B981CE0FD11D0FB628
:101D2000F894DEBF0FBECDBFED010895A1E21A2EDB
:101D3000AA1BBB1BFD010DC0AA1FBB1FEE1FFF1F6F
:101D4000A217B307E407F50720F0A21BB30BE40BBF
:101D5000F50B661F771F881F991F1A9469F7609506
:101D60007095809590959B01AC01BD01CF010895C0
:101D7000A29FB001B39FC001A39F700D811D1124CC
:101D8000911DB29F700D811D1124911D08950E9417
:101D9000B80EB7FF0895821B930B0895EE0FFF1F37
:101DA0000590F491E02D09940F931F93CF93DF9347
:101DB0008230910510F482E090E0E091BC03F09154
:101DC000BD0330E020E0B0E0A0E0309799F42115A9
:101DD000310509F44AC0281B390B24303105D8F5E8
:101DE0008A819B816115710589F1FB01938382834F
:101DF000FE0111C0408151810281138148175907AA
:101E0000E0F04817590799F4109761F012960C9377
:101E1000129713961C933296CF01DF91CF911F91A9
:101E20000F9108950093BC031093BD03F4CF2115C7
:101E3000310551F04217530738F0A901DB019A012F
:101E4000BD01DF01F801C1CFEF01F9CF9093BD03D0
:101E50008093BC03CDCFFE01E20FF31F81939193DA
:101E60002250310939832883D7CF2091BA0330918A
:101E7000BB03232B41F420911301309114013093C3
:101E8000BB032093BA032091110130911201211557
:101E9000310541F42DB73EB740911501509116011F
:101EA000241B350BE091BA03F091BB03E217F30753
:101EB000A0F42E1B3F0B2817390778F0AC014E5FBA
:101EC0005F4F2417350748F04E0F5F1F5093BB0339
:101ED0004093BA03819391939FCFF0E0E0E09CCFD1
:101EE000CF93DF930097E9F0FC01329713821282BF
:101EF000A091BC03B091BD03ED0130E020E010974C
:101F0000A1F420813181820F931F2091BA03309177
:101F1000BB032817390709F061C0F093BB03E093B6
:101F2000BA03DF91CF910895EA01CE17DF07E8F5F4
:101F30004A815B819E0141155105B1F7E901FB839F
:101F4000EA8349915991C40FD51FEC17FD0761F43D
:101F5000808191810296840F951FE901998388837E
:101F6000828193819B838A83F0E0E0E012968D91D9
:101F70009C9113970097B9F52D913C911197CD0144
:101F80000296820F931F2091BA033091BB0328174A
:101F9000390739F6309751F51092BD031092BC0302
:101FA000B093BB03A093BA03BCCFD383C283408159
:101FB0005181840F951FC817D90761F44E5F5F4F99
:101FC00088819981480F591F518340838A819B8161
:101FD000938382832115310509F0B0CFF093BD03BF
:101FE000E093BC039ECFFD01DC01C0CF13821282BF
:101FF000D7CFB0E0A0E0EFEFFFE00C94610E8C01D2
:10200000009751F4CB010E94D40E8C01C801CDB7CA
:10201000DEB7E0E10C947D0EFC01E60FF71F9C019A
:1020200022503109E217F30708F49DC0D901CD9180
:10203000DC911197C617D70798F0C530D10530F35A
:10204000CE0104978617970708F3C61BD70B229774
:10205000C193D1936D937C93CF010E94700FD6CF23
:102060005B01AC1ABD0A4C018C0E9D1EA091BC03F5
:10207000B091BD03512C412CF12CE12C109731F57E
:102080008091BA039091BB038815990509F05CC053
:102090004616570608F058C0809111019091120120
:1020A000009741F48DB79EB74091150150911601EC
:1020B000841B950BE817F90708F055C0F093BB0394
:1020C000E093BA03F90171836083A0CF8D919C9155
:1020D000119712966C90129713967C901397A815EF
:1020E000B90559F56C0142E0C40ED11CCA14DB04D9
:1020F00020F1AC014A195B09DA011296159780F0BC
:102100006282738251834083D9016D937C93E11481
:10211000F10471F0D7011396FC93EE93129776CFEA
:1021200022968C0F9D1FF90191838083F301EFCFDD
:10213000F093BD03E093BC0369CF4816590608F439
:102140002C017D01D3019ACFCB010E94D40E7C01DA
:10215000009749F0AE01B8010E94B610C8010E9474
:10216000700F870153CF10E000E050CFFB01DC017E
:1021700002C001900D9241505040D8F70895FC01E3
:102180008191861721F08823D9F7992708953197EF
:10219000CF010895FB01DC018D91019080190110A0
:1021A000D9F3990B0895FB01DC0101900D920020F9
:1021B000E1F7089510E0C2E6D0E004C0FE010E94FD
:0E21C000CE0E2196C336D107C9F7F894FFCF93
:1021CE00B801B801B801B801B801B801B801B80139
:1021DE00010000BE038000000000004B041D08003B
:1021EE000000008B02B901E601D8024902F5013B5D
:1021FE00020D0A0052454400424C554500424C55D2
:10220E00455F424C494E4B0059454C4C4F5700537D
:10221E00797374656D204F4E0053797374656D201C
:10222E004F464600423A004C45443A005245445F00
:10223E00424C494E4B00414C4C5F424C494E4B0078
:10224E004C45445F53544154453A004231004232AA
:10225E00004233005245445F54494D45004F4B3ABE
:10226E005245445F54494D453A0059454C4C4F57E1
:10227E005F54494D45004F4B3A59454C4C4F575FB3
:10228E0054494D453A00424C55455F54494D450021
:0E229E004F4B3A424C55455F54494D453A006E
:00000001FF
