:100000000C945E000C9486000C9486000C94860080
:100010000C9486000C9486000C9486000C94860048
:100020000C9486000C9486000C9486000C94860038
:100030000C9486000C9486000C9486000C94860028
:100040000C94E9050C9486000C9459060C94330624
:100050000C9486000C9486000C9486000C94860008
:100060000C9486000C9486000000000024002700F9
:100070002A0000000000250028002B0004040404CE
:100080000404040402020202020203030303030342
:10009000010204081020408001020408102001021F
:1000A00004081020000000080002010000030407FB
:1000B00000000000000000008B067F0811241FBE16
:1000C000CFEFD8E0DEBFCDBF22E0AEE4B1E001C0AB
:1000D0001D92A138B207E1F711E0A0E0B1E0E4EB36
:1000E000F6E102C005900D92AE34B107D9F710E0E9
:1000F000CDE5D0E004C02197FE010E945509CC3522
:10010000D107C9F70E9400070C944D0B0C94000016
:10011000E1EBF0E02491EDE9F0E09491E9E8F0E022
:10012000E491EE23C9F0222339F0233001F1A8F441
:10013000213019F1223029F1F0E0EE0FFF1FEE58C7
:10014000FF4FA591B4912FB7F894EC91811126C07F
:1001500090959E239C932FBF08952730A9F02830B7
:10016000C9F0243049F7209180002F7D03C02091F1
:1001700080002F7720938000DFCF24B52F7724BD18
:10018000DBCF24B52F7DFBCF2091B0002F772093BC
:10019000B000D2CF2091B0002F7DF9CF9E2BDACFC7
:1001A0002FB7F894609153017091540180915501DB
:1001B000909156012FBF0895AF92BF92CF92DF92D8
:1001C000EF92FF920F931F93CF93DF936C017B010C
:1001D0008B01040F151FEB015E01AE18BF08C0179D
:1001E000D10759F06991D601ED91FC910190F08110
:1001F000E02DC6010995892B79F7C501DF91CF91D3
:100200001F910F91FF90EF90DF90CF90BF90AF9034
:100210000895CF93DF93FC01448155816081718102
:1002200087E591E00E94DC00EC0142E050E060E2F2
:1002300071E087E591E00E94DC008C0F9D1FDF914B
:10024000CF910895FC01538D448D252F30E0842FEC
:1002500090E0821B930B541710F0CF9608950197EE
:100260000895FC01918D828D981761F0A28DAE0FDB
:10027000BF2FB11D5D968C91928D9F5F9F73928F62
:1002800090E008958FEF9FEF08950F931F930E94C2
:10029000D00060935F01709360018093610190933F
:1002A000620187E591E00E94310197FF1DC00E9425
:1002B000D00000915F0110916001209161013091A7
:1002C0006201601B710B820B930B00915B0110911B
:1002D0005C0120915D0130915E016017710782071A
:1002E0009307F8F28FEF9FEF1F910F910895FC0194
:1002F000918D828D981731F0828DE80FF11D858DDB
:1003000090E008958FEF9FEF0895FC01918D228D6D
:10031000892F90E0805C9F4F821B91098F739927F2
:10032000089587E591E00E94850121E0892B09F479
:1003300020E0822F089580E090E0892B29F00E9430
:10034000910181110C9400000895FC01A48DA80F67
:10035000B92FB11DA35ABF4F2C91848D90E0019607
:100360008F739927848FA689B7892C93A089B18927
:100370008C91837080648C93938D848D981306C0C8
:100380000288F389E02D80818F7D80830895EF922C
:10039000FF920F931F93CF93DF93EC0181E0888F3F
:1003A0009B8D8C8D98131AC0E889F989808185FF0F
:1003B00015C09FB7F894EE89FF896083E889F989B1
:1003C00080818370806480839FBF81E090E0DF91B3
:1003D000CF911F910F91FF90EF900895F62E0B8D06
:1003E00010E00F5F1F4F0F731127E02E8C8D8E11C1
:1003F0000CC00FB607FCFACFE889F989808185FF28
:10040000F5CFCE010E94A501F1CFEB8DEC0FFD2FB2
:10041000F11DE35AFF4FF0829FB7F8940B8FEA89E2
:10042000FB8980818062CFCFCF93DF93EC01888DF1
:100430008823B9F0AA89BB89E889F9898C9185FD5F
:1004400003C0808186FD0DC00FB607FCF7CF8C91ED
:1004500085FFF2CF808185FFEDCFCE010E94A501FF
:10046000E9CFDF91CF9108950F931F93CF93DF933F
:10047000DC015F96ED91FC91309781F0EC01ADA12C
:10048000BEA114960D911C91159715969C938E9371
:1004900014970995EDA1FEA115830483DF91CF91F7
:1004A0001F910F9108950F931F93CF93DF93FC013A
:1004B000A5A1B6A1109709F448C0EC01178A108EC7
:1004C000118E128E82818B7F8283058CF68DE02DBA
:1004D0003097B9F18A8181FD34C014960D911C9139
:1004E00015971596DC93CE9314978A8182608A8340
:1004F00009959A8180FB90F99A838A818D7F8A83FE
:10050000EDA1FEA1158304838B819C81AD81BE8109
:100510008F839887A987BA870E94D0000F8118859A
:1005200029853A85601B710B820B930B6B877C8747
:100530008D879E878A818170DF91CF911F910F9166
:1005400008958A8181608A83DFCF80E0F5CF8F9222
:100550009F92AF92BF92CF92EF92FF920F931F9311
:10056000CF93DF93EC01480159018AE091E0998330
:1005700088838A818E7F8A838A818D7F8A838A811C
:100580008B7F8A831B861C861D861E861B821C828F
:100590001D821E821F82188619861A861AA219A227
:1005A0001CA21BA21EA21DA21F8A188E198E1A8EB3
:1005B000FC8EEB8E1E8E1D8E18A21F8E4B835C83CD
:1005C0006D837E838B819C81AD81BE818F83988773
:1005D000A987BA870E94D0006B877C878D879E870A
:1005E0008F86988AA98ABA8A8B8A9C8AAD8ABE8AA3
:1005F0008DA19EA1892BD9F41092700289E692E018
:100600009EA38DA38091690290916A02892BF9F4CF
:10061000D0936A02C09369021AA219A21CA21BA25B
:10062000D0936C02C0936B0281E080937002CC2067
:10063000B9F0CE01DF91CF911F910F91FF90EF9014
:10064000CF90BF90AF909F908F900C945302E09109
:100650006B02F0916C02FAA3E9A3D4A3C3A3DECF8B
:10066000DF91CF911F910F91FF90EF90CF90BF90AE
:10067000AF909F908F900895CF93DF93EC018AE025
:1006800091E0998388838A8180FF0CC09A818A8156
:100690008E7F8A838A818D7F8A8390FF03C0CE01FB
:1006A0000E943402EDA1FEA1309789F017821EA2AC
:1006B0001DA2A9A1BAA18BA19CA1109799F40097A2
:1006C00049F4118210821382128281E08783DF91C4
:1006D000CF910895DC0192961C921E92919791837E
:1006E0008083F3CF009739F494961C921E929397CF
:1006F000B383A283EACF94969C938E9393970BA097
:10070000DCA1C02DBAA3A9A3E0CF0F931F93CF9371
:10071000DF93EC0188819981009759F02A813B8110
:100720002617370730F081E0DF91CF911F910F91AD
:1007300008958B016F5F7F4F0E94800A009759F0E8
:10074000998388831B830A832C813D81232B59F74E
:10075000FC011082E8CF80E0E7CFEF92FF920F9389
:100760001F93CF93DF936115710541F480E0DF9112
:10077000CF911F910F91FF90EF9008954115510572
:10078000B1F07B01EC010C811D81040F151FB80134
:100790000E948503882351F3288139818C819D81B2
:1007A000B701820F931F0E94460B1D830C8381E0CB
:1007B000DECFCF93DF93EC0188819981009711F010
:1007C0000E94F709198218821D821C821B821A82DC
:1007D000DF91CF910895CF93DF93EC01FB0101905E
:1007E0000020E9F73197AF01461B570B0E94AD037C
:1007F000811103C0CE010E94D903CE01DF91CF91B8
:100800000895CF93DF93EC01FB0144815581608112
:1008100071810E94AD03811103C0CE010E94D903F2
:10082000CE01DF91CF910895EF92FF920F931F9326
:10083000CF93DF93EC017B018A01BA010E9485030B
:1008400081110BC0CE010E94D903CE01DF91CF915F
:100850001F910F91FF90EF9008951D830C83B701B6
:10086000888199810E94460BF0CFEF92FF920F93FF
:100870001F93CF93DF93CDB7DEB7A1970FB6F89450
:10088000DEBF0FBECDBF8C01CB01BA01F8011182D2
:10089000108213821282158214822AE0AE014F5F09
:1008A0005F4F7A010E94D208F70101900020E9F71A
:1008B0003197AF014E195F09B701C8010E941404B6
:1008C000A1960FB6F894DEBF0FBECDBFDF91CF91DA
:1008D0001F910F91FF90EF900895FC0111821082FB
:1008E0001382128215821482FB0101900020E9F725
:1008F0003197AF01461B570B0C941404FC01808107
:100900009181009711F00C94F70908950F931F93AC
:10091000CF93DF93CDB7DEB72C970FB6F894DEBF39
:100920000FBECDBF0E94D000AB01BC01CE01079627
:100930000E94350463E271E0CE0101960E946D04CD
:10094000BE01695F7F4FCE0101960E94010465E2FE
:1009500071E00E94EB030E940901CE0101960E9402
:100960007E04CE0107960E947E0481E00E948800EA
:100970000BE112E0F80183899489A589B6898787FC
:10098000908BA18BB28BC8010E94530288EC90E03F
:10099000A0E0B0E0F80187839087A187B2870E942A
:1009A000D000F801638774878587968780911D0240
:1009B0002C960FB6F894DEBF0FBECDBFDF91CF915E
:1009C0001F910F910895CF93DF93CDB7DEB72C978A
:1009D0000FB6F894DEBF0FBECDBF0E94D000AB01B2
:1009E000BC01CE0107960E94350463E271E0CE019E
:1009F00001960E946D04BE01695F7F4FCE01019692
:100A00000E9401046EE271E00E94EB030E94090162
:100A1000CE0101960E947E04CE0107960E947E04BC
:100A200080E00E9488002C960FB6F894DEBF0FBEBF
:100A3000CDBFDF91CF910895CF93DF93EC010E945A
:100A40003C03CE01DF91CF910C94F7098F929F92D6
:100A5000AF92BF92EF92FF920F931F93CF93DF93CA
:100A6000CDB7DEB76A970FB6F894DEBF0FBECDBF25
:100A700087E591E00E948501181619060CF098C0D0
:100A80001E8A1D8A188E1F8A1A8E198E50E040E029
:100A900062E271E0CE0145960E9414040E94450175
:100AA00097FD0FC08A30910561F089831A8241E079
:100AB00050E0BE016F5F7F4FCE0145960E94AD03AF
:100AC000EDCF8D899E89812C912C5401009719F0CE
:100AD0000E948B084B01181419040CF065C0C40166
:100AE000092C000CAA0BBB0B809345029093460285
:100AF000A0934702B093480280914502909146022C
:100B0000A0914702B09148028093490290934A0213
:100B1000A0934B02B0934C020E94D00060934D0210
:100B200070934E0280934F02909350020E94D00027
:100B3000AB01BC01CE010F960E94350463E271E067
:100B4000CE0109960E946D04BE01615F7F4FCE0108
:100B500009960E94010468E371E00E94EB037C01A6
:100B60004AE08E010F5F1F4FB801C4010E94B20816
:100B7000F80101900020E9F73197AF01401B510BBC
:100B8000B801C7010E94AD03811103C0C7010E94D3
:100B9000D903C7010E940901CE0109960E947E0473
:100BA000CE010F960E947E04CE0145960E947E04DF
:100BB0006A960FB6F894DEBF0FBECDBFDF91CF911E
:100BC0001F910F91FF90EF90BF90AF909F908F90EB
:100BD00008951F920F920FB60F9211242F933F93F7
:100BE0008F939F93AF93BF93809153019091540142
:100BF000A0915501B09156013091520123E0230F8D
:100C00002D3758F50196A11DB11D209352018093F7
:100C1000530190935401A0935501B09356018091D4
:100C20004E0190914F01A0915001B0915101019658
:100C3000A11DB11D80934E0190934F01A0935001CF
:100C4000B0935101BF91AF919F918F913F912F919F
:100C50000F900FBE0F901F90189526E8230F029655
:100C6000A11DB11DD2CF1F920F920FB60F9211246A
:100C70002F933F934F935F936F937F938F939F93A4
:100C8000AF93BF93EF93FF9387E591E00E94A50197
:100C9000FF91EF91BF91AF919F918F917F916F9154
:100CA0005F914F913F912F910F900FBE0F901F902A
:100CB00018951F920F920FB60F9211242F938F93B6
:100CC0009F93EF93FF93E0916701F091680180811A
:100CD000E0916D01F0916E0182FD1BC090818091C9
:100CE00070018F5F8F7320917101821741F0E09145
:100CF0007001F0E0E95AFE4F958F80937001FF91EB
:100D0000EF919F918F912F910F900FBE0F901F9099
:100D100018958081F4CFCF92EF92FF920F931F939B
:100D2000E7E5F1E01382128288EE93E0A0E0B0E004
:100D300084839583A683B78382E191E09183808346
:100D400085EC90E09587848784EC90E09787868790
:100D500080EC90E0918B808B81EC90E0938B828B88
:100D600082EC90E0958B848B86EC90E0978B868B61
:100D7000118E128E138E148EE9E6F2E01782118224
:100D800010821382128215821482168281E0878378
:100D9000CC24C39486E8E82E84E0F82E0FEF1FEFF2
:100DA000980140ED57E060E070E082E492E00E943C
:100DB000A702C12C93EEE92E94E0F92E01E010E099
:100DC00020E030E040E050E0BA018BE192E00E9488
:100DD000A702CC24C39426E2E22E25E0F22E0FEFE8
:100DE0001FEF980144E650E060E070E084EF91E08E
:100DF0000E94A7021F910F91FF90EF90CF9008954E
:100E0000789484B5826084BD84B5816084BD85B5E5
:100E1000826085BD85B5816085BD80916E008160F1
:100E200080936E0010928100809181008260809397
:100E30008100809181008160809381008091800099
:100E40008160809380008091B10084608093B100C4
:100E50008091B00081608093B00080917A008460BE
:100E600080937A0080917A00826080937A008091EA
:100E70007A00816080937A0080917A008068809304
:100E80007A001092C100EDE9F0E02491E9E8F0E089
:100E90008491882399F090E0880F991FFC01E8590C
:100EA000FF4FA591B491FC01EE58FF4F85919491AD
:100EB0008FB7F894EC91E22BEC938FBFE091670130
:100EC000F091680182E08083E0916301F091640118
:100ED0001082E0916501F09166018FEC80831092A1
:100EE0006F01E0916B01F0916C0186E08083E091ED
:100EF0006901F0916A01808180618083E0916901DC
:100F0000F0916A01808188608083E0916901F091AD
:100F10006A01808180688083E0916901F0916A01B3
:100F200080818F7D8083C0E0D0E0809169029091C4
:100F30006A0290936E0280936D0210927102109279
:100F40007202109273021092740210927502109243
:100F50007602109277021092780210927902109223
:100F60007A0210927B0210927C0280917002882398
:100F700009F4BAC080916F028111B6C0E0916D0290
:100F8000F0916E02309709F4AFC080917502909194
:100F90007602A0917702B09178020196A11DB11D51
:100FA0008093750290937602A0937702B0937802B3
:100FB00003A114A1828180FF27C0809171029091CA
:100FC0007202A0917302B09174020196A11DB11D2D
:100FD0008093710290937202A0937302B093740293
:100FE00087859089A189B289892B8A2B8B2B89F4DB
:100FF000928182818E7F828382818D7F828390FF26
:1010000003C0CF010E94340210936E0200936D0260
:10101000B1CF0E94D000E0916D02F0916E0243804A
:1010200054806580768083849484A584B684C78048
:10103000D084E184F284DC01CB0188199909AA09E2
:10104000BB098C159D05AE05BF05F0F2878590891B
:10105000A189B289181619061A061B065CF4878541
:101060009089A189B2890197A109B1098787908BDD
:10107000A18BB28B8789908DA18DB28D0196A11D18
:10108000B11D878B908FA18FB28F83859485A585A5
:10109000B685C780D084E184F2848C0D9D1DAE1D81
:1010A000BF1D83879487A587B68747825086618650
:1010B0007286038CF48DE02D309709F4A5CF099545
:1010C0008091790290917A02A0917B02B0917C028A
:1010D0000196A11DB11D8093790290937A02A0938D
:1010E0007B02B0937C0290CF209709F41ECF0E9420
:1010F0009101882309F419CF0E94000016CF84EFD4
:1011000091E00E943C038BE192E00E943C0382E468
:1011100092E00C943C031F93FC0199278827BC01A3
:10112000E89411911032E9F3193010F01E30C8F331
:101130001B3251F01D3249F4689406C00E94BD086C
:10114000610F711D811D911D119110531A30B0F363
:101150003EF490958095709561957F4F8F4F9F4F8E
:101160001F910895BB274A3031F4992322F4BDE240
:10117000909581959F4F0C94F508592F482F372F44
:10118000262F660F771F881F991F660F771F881FEE
:10119000991F620F731F841F951F660F771F881F8B
:1011A000991F0895BB27FA01A62F621771058105C3
:1011B0009105330B30FB66F0AA27660F771F881F57
:1011C000991FAA1FA21710F0A21B63953850A9F708
:1011D000A05DAA3308F0A95DA19336F7B111B193D0
:1011E0001082CA010C940E09BB27FB015527AA27C0
:1011F000880F991FAA1FA41710F0A41B83955051A4
:10120000B9F7A05DAA3308F0A95DA193009779F71B
:10121000B111B1931192CB010C940E09DC01FC01C8
:10122000672F71917723E1F7329704C07C916D931A
:1012300070836291AE17BF07C8F308952F923F9253
:101240004F925F926F927F928F929F92AF92BF92D6
:10125000CF92DF92EF92FF920F931F93CF93DF9382
:10126000CDB7DEB7CA1BDB0B0FB6F894DEBF0FBEDF
:10127000CDBF09942A88398848885F846E847D842C
:101280008C849B84AA84B984C884DF80EE80FD802E
:101290000C811B81AA81B981CE0FD11D0FB6F894A4
:1012A000DEBF0FBECDBFED010895EE0FFF1F05900D
:1012B000F491E02D09940F931F93CF93DF93823025
:1012C000910510F482E090E0E0917F02F0918002BD
:1012D00030E020E0B0E0A0E0309799F4211531052E
:1012E00009F44AC0281B390B24303105D8F58A810E
:1012F0009B816115710589F1FB0193838283FE0156
:1013000011C0408151810281138148175907E0F0D3
:101310004817590799F4109761F012960C93129799
:1013200013961C933296CF01DF91CF911F910F91AD
:10133000089500937F0210938002F4CF21153105A8
:1013400051F04217530738F0A901DB019A01BD01A2
:10135000DF01F801C1CFEF01F9CF909380028093B4
:101360007F02CDCFFE01E20FF31F819391932250B4
:10137000310939832883D7CF20917D0230917E02B5
:10138000232B41F4209102013091030130937E021E
:1013900020937D022091000130910101211531053A
:1013A00041F42DB73EB74091040150910501241B33
:1013B000350BE0917D02F0917E02E217F307A0F475
:1013C0002E1B3F0B2817390778F0AC014E5F5F4F9B
:1013D0002417350748F04E0F5F1F50937E0240934D
:1013E0007D02819391939FCFF0E0E0E09CCFCF937B
:1013F000DF930097E9F0FC01329713821282A091EB
:101400007F02B0918002ED0130E020E01097A1F45E
:1014100020813181820F931F20917D0230917E02C5
:101420002817390709F061C0F0937E02E0937D022E
:10143000DF91CF910895EA01CE17DF07E8F54A81E1
:101440005B819E0141155105B1F7E901FB83EA83F8
:1014500049915991C40FD51FEC17FD0761F48081A4
:1014600091810296840F951FE90199838883828177
:1014700093819B838A83F0E0E0E012968D919C91AA
:1014800013970097B9F52D913C911197CD010296D4
:10149000820F931F20917D0230917E022817390719
:1014A00039F6309751F51092800210927F02B09376
:1014B0007E02A0937D02BCCFD383C2834081518141
:1014C000840F951FC817D90761F44E5F5F4F88815D
:1014D0009981480F591F518340838A819B8193834F
:1014E00082832115310509F0B0CFF0938002E0939B
:1014F0007F029ECFFD01DC01C0CF13821282D7CFC5
:10150000B0E0A0E0E6E8FAE00C9420098C01009736
:1015100051F4CB010E945B098C01C801CDB7DEB745
:10152000E0E10C943C09FC01E60FF71F9C012250FE
:101530003109E217F30708F49DC0D901CD91DC9180
:101540001197C617D70798F0C530D10530F3CE01F3
:1015500004978617970708F3C61BD70B2297C193EA
:10156000D1936D937C93CF010E94F709D6CF5B0195
:10157000AC1ABD0A4C018C0E9D1EA0917F02B09149
:101580008002512C412CF12CE12C109731F58091E7
:101590007D0290917E028815990509F05CC046167F
:1015A000570608F058C08091000190910101009702
:1015B00041F48DB79EB74091040150910501841B01
:1015C000950BE817F90708F055C0F0937E02E093F9
:1015D0007D02F90171836083A0CF8D919C91119759
:1015E00012966C90129713967C901397A815B905D4
:1015F00059F56C0142E0C40ED11CCA14DB0420F181
:10160000AC014A195B09DA011296159780F06282E3
:10161000738251834083D9016D937C93E114F1046B
:1016200071F0D7011396FC93EE93129776CF229622
:101630008C0F9D1FF90191838083F301EFCFF0930D
:101640008002E0937F0269CF4816590608F42C0106
:101650007D01D3019ACFCB010E945B097C010097E9
:1016600049F0AE01B8010E943D0BC8010E94F70984
:10167000870153CF10E000E050CFFB01DC0102C036
:1016800001900D9241505040D8F70895FB01DC01C4
:1016900001900D920020E1F7089510E0CDE5D0E033
:1016A00004C0FE010E9455092196CE35D107C9F725
:0416B000F894FFCFDC
:1016B400000081028000000000003C031C050000C3
:1016C4000000C701DC002201140285013101770109
:1016D4000D0A005B005D204C4544204F4E005D2008
:1016E4004C4544204F4646005D204E65772074618A
:0E16F400736B3120706572696F643A200000DC
:00000001FF
