:100000000C945E000C9486000C9486000C94860080
:100010000C9486000C9486000C9486000C94860048
:100020000C9486000C9486000C9486000C94860038
:100030000C9486000C9486000C9486000C94860028
:100040000C941F020C9486000C9486000C9486007D
:100050000C9486000C9486000C9486000C94860008
:100060000C9486000C9486000000000024002700F9
:100070002A0000000000250028002B0004040404CE
:100080000404040402020202020203030303030342
:10009000010204081020408001020408102001021F
:1000A00004081020000000080002010000030407FB
:1000B0000000000000000000D403EC0311241FBE68
:1000C000CFEFD8E0DEBFCDBF11E0A0E0B1E0E8E5C2
:1000D000FAE002C005900D92AE30B107D9F721E0E9
:1000E000AEE0B1E001C01D92AD37B207E1F710E01C
:1000F000CDE5D0E004C02197FE010E94F403CC3589
:10010000D107C9F70E9469020C941F050C940000E6
:10011000E1EBF0E02491EDE9F0E09491E9E8F0E022
:10012000E491EE23C9F0222339F0233001F1A8F441
:10013000213019F1223029F1F0E0EE0FFF1FEE58C7
:10014000FF4FA591B4912FB7F894EC91811126C07F
:1001500090959E239C932FBF08952730A9F02830B7
:10016000C9F0243049F7209180002F7D03C02091F1
:1001700080002F7720938000DFCF24B52F7724BD18
:10018000DBCF24B52F7DFBCF2091B0002F772093BC
:10019000B000D2CF2091B0002F7DF9CF9E2BDACFC7
:1001A0000F931F93CF93DF93EC018AE091E0998343
:1001B00088838A818E7F8A838A818D7F8A838A81E0
:1001C0008B7F8A831B861C861D861E861B821C8253
:1001D0001D821E821F82188619861A861AA219A2EB
:1001E0001CA21BA21EA21DA21F8A188E198E1A8E77
:1001F0007C8F6B8F1E8E1D8E18A21F8E80ED97E058
:10020000A0E0B0E08B839C83AD83BE838B819C8117
:10021000AD81BE818F839887A987BA872FB7F8945D
:100220008091610190916201A0916301B09164019C
:100230002FBF8B879C87AD87BE878FEF9FEFDC0139
:100240008F87988BA98BBA8B8B8B9C8BAD8BBE8B3E
:100250008DA19EA1892BE1F410926C0185E691E0BD
:100260009EA38DA38091650190916601892B09F071
:100270005FC0D0936601C09365011AA219A21CA2A7
:100280001BA2D0936801C093670181E080936C0149
:10029000ADA1BEA1109709F446C01F8A188E198E11
:1002A0001A8E8A818B7F8A83ED8DFE8D309709F4BB
:1002B0004AC08A8181FD47C014960D911C91159703
:1002C0001596DC93CE9314978A8182608A83099570
:1002D0009A8180FB90F99A838A818D7F8A83EDA130
:1002E000FEA1158304838B819C81AD81BE818F83A8
:1002F0009887A987BA872FB7F89480916101909168
:100300006201A0916301B09164012FBF4F815885B4
:1003100069857A85841B950BA60BB70B8B879C8709
:10032000AD87BE878A81DF91CF911F910F9108958C
:10033000A0916701B0916801BAA3A9A39496DC9338
:10034000CE9393979CCF8A8181608A83CCCF0F9381
:100350001F93CF93DF93DC015F96ED91FC91309773
:1003600081F0EC01ADA1BEA114960D911C911597E1
:1003700015969C938E9314970995EDA1FEA1158374
:100380000483DF91CF911F910F91089581E00C9428
:10039000880080E00C948800CF93DF93EC018AE022
:1003A00091E0998388838A8180FF0CC09A818A8139
:1003B0008E7F8A838A818D7F8A8390FF03C0CE01DE
:1003C0000E94A701EDA1FEA1309789F017821EA21D
:1003D0001DA2A9A1BAA18BA19CA1109799F4009785
:1003E00049F4118210821382128281E08783DF91A7
:1003F000CF910895DC0192961C921E929197918361
:100400008083F3CF009739F494961C921E929397B1
:10041000B383A283EACF94969C938E9393970BA079
:10042000DCA1C02DBAA3A9A3E0CFCF93DF93EC0149
:100430000E94CC01CE01DF91CF910C9496041F92C3
:100440000F920FB60F9211242F933F938F939F9388
:10045000AF93BF938091610190916201A09163017C
:10046000B09164013091600123E0230F2D3758F5DE
:100470000196A11DB11D20936001809361019093AD
:100480006201A0936301B093640180915C0190913B
:100490005D01A0915E01B0915F010196A11DB11DAA
:1004A00080935C0190935D01A0935E01B0935F0126
:1004B000BF91AF919F918F913F912F910F900FBE60
:1004C0000F901F90189526E8230F0296A11DB11DCD
:1004D000D2CF789484B5826084BD84B5816084BDB8
:1004E00085B5826085BD85B5816085BD80916E00D2
:1004F000816080936E001092810080918100826003
:10050000809381008091810081608093810080913F
:1005100080008160809380008091B100846080932E
:10052000B1008091B00081608093B00080917A002A
:10053000846080937A0080917A00826080937A0050
:1005400080917A00816080937A0080917A0080683F
:1005500080937A001092C100EDE9F0E02491E9E87F
:10056000F0E08491882399F090E0880F991FFC01B6
:10057000E859FF4FA591B491FC01EE58FF4F8591CA
:1005800094918FB7F894EC91E22BEC938FBF88ECA9
:1005900090E0A0E0B0E080933C0190933D01A093F7
:1005A0003E01B0933F012FB7F89480916101909183
:1005B0006201A0916301B09164012FBF809340015B
:1005C00090934101A0934201B0934301C0E0D0E079
:1005D000809165019091660190936A018093690111
:1005E00010926D0110926E0110926F0110927001C5
:1005F00010927101109272011092730110927401A5
:100600001092750110927601109277011092780184
:1006100080916C01882309F4C1C080916B01811124
:10062000BDC0E0916901F0916A01309709F4B6C04C
:100630008091710190917201A0917301B091740148
:100640000196A11DB11D8093710190937201A09339
:100650007301B093740103A114A1828180FF27C0AC
:1006600080916D0190916E01A0916F01B091700128
:100670000196A11DB11D80936D0190936E01A09311
:100680006F01B093700187859089A189B289892B08
:100690008A2B8B2B89F4928182818E7F8283828147
:1006A0008D7F828390FF03C0CF010E94A70110932A
:1006B0006A0100936901B1CF2FB7F894809161016D
:1006C00090916201A0916301B09164012FBFE0910C
:1006D0006901F0916A014381548165817681838447
:1006E0009484A584B684C780D084E184F284881978
:1006F0009909AA09BB098C159D05AE05BF05B8F27D
:1007000087859089A189B289181619061A061B06D1
:100710005CF487859089A189B2890197A109B10903
:100720008787908BA18BB28B8789908DA18DB28D9D
:100730000196A11DB11D878B908FA18FB28F8385EC
:100740009485A585B685C780D084E184F2848C0D1C
:100750009D1DAE1DBF1D83879487A587B6874783E0
:10076000508761877287038CF48DE02D309709F4F0
:100770009ECF09958091750190917601A0917701A6
:10078000B09178010196A11DB11D809375019093E0
:100790007601A0937701B093780189CF209709F46F
:1007A00017CF0E94000014CFE5E6F1E01782118216
:1007B00010821382128215821482168281E087834E
:1007C00066EC71E08EE091E00E94D00069EC71E08F
:1007D00085E391E00C94D00085E391E00E94CC0188
:1007E0008EE091E00C94CC01EE0FFF1F0590F49188
:1007F000E02D09940F931F93CF93DF9382309105DF
:1008000010F482E090E0E0917B01F0917C0130E017
:1008100020E0B0E0A0E0309799F42115310509F40B
:100820004AC0281B390B24303105D8F58A819B81B9
:100830006115710589F1FB0193838283FE0111C06B
:10084000408151810281138148175907E0F0481710
:10085000590799F4109761F012960C93129713961A
:100860001C933296CF01DF91CF911F910F91089584
:1008700000937B0110937C01F4CF2115310551F0D9
:100880004217530738F0A901DB019A01BD01DF01CE
:10089000F801C1CFEF01F9CF90937C0180937B01E8
:1008A000CDCFFE01E20FF31F8193919322503109C6
:1008B00039832883D7CF2091790130917A01232B76
:1008C00041F4209102013091030130937A01209389
:1008D000790120910001309101012115310541F488
:1008E0002DB73EB74091040150910501241B350BF3
:1008F000E0917901F0917A01E217F307A0F42E1B41
:100900003F0B2817390778F0AC014E5F5F4F241773
:10091000350748F04E0F5F1F50937A0140937901DD
:10092000819391939FCFF0E0E0E09CCFCF93DF9352
:100930000097E9F0FC01329713821282A0917B01AB
:10094000B0917C01ED0130E020E01097A1F420810E
:100950003181820F931F2091790130917A012817FC
:10096000390709F061C0F0937A01E0937901DF91D2
:10097000CF910895EA01CE17DF07E8F54A815B8140
:100980009E0141155105B1F7E901FB83EA834991C5
:100990005991C40FD51FEC17FD0761F48081918137
:1009A0000296840F951FE901998388838281938140
:1009B0009B838A83F0E0E0E012968D919C911397DF
:1009C0000097B9F52D913C911197CD010296820FB8
:1009D000931F2091790130917A012817390739F650
:1009E000309751F510927C0110927B01B0937A01FF
:1009F000A0937901BCCFD383C28340815181840FFE
:100A0000951FC817D90761F44E5F5F4F88819981A0
:100A1000480F591F518340838A819B81938382832E
:100A20002115310509F0B0CFF0937C01E0937B01F3
:100A30009ECFFD01DC01C0CF13821282D7CF10E020
:100A4000CDE5D0E004C0FE010E94F4032196CE352E
:080A5000D107C9F7F894FFCFAC
:0E0A580000007D01800000000000CC011502AE
:00000001FF
